{
  "contractName": "HealthInsuranceContract",
  "abi": [
    {
      "inputs": [
        {
          "internalType": "address",
          "name": "_hospital",
          "type": "address"
        }
      ],
      "stateMutability": "nonpayable",
      "type": "constructor"
    },
    {
      "inputs": [],
      "name": "dataUploaded",
      "outputs": [
        {
          "internalType": "bool",
          "name": "",
          "type": "bool"
        }
      ],
      "stateMutability": "view",
      "type": "function",
      "constant": true
    },
    {
      "inputs": [],
      "name": "hospital",
      "outputs": [
        {
          "internalType": "address",
          "name": "",
          "type": "address"
        }
      ],
      "stateMutability": "view",
      "type": "function",
      "constant": true
    },
    {
      "inputs": [],
      "name": "insuranceCompany",
      "outputs": [
        {
          "internalType": "address",
          "name": "",
          "type": "address"
        }
      ],
      "stateMutability": "view",
      "type": "function",
      "constant": true
    },
    {
      "inputs": [
        {
          "internalType": "uint256",
          "name": "",
          "type": "uint256"
        }
      ],
      "name": "patientDataUploaded",
      "outputs": [
        {
          "internalType": "bool",
          "name": "",
          "type": "bool"
        }
      ],
      "stateMutability": "view",
      "type": "function",
      "constant": true
    },
    {
      "inputs": [],
      "name": "userVerificationStatus",
      "outputs": [
        {
          "internalType": "bool",
          "name": "",
          "type": "bool"
        }
      ],
      "stateMutability": "view",
      "type": "function",
      "constant": true
    },
    {
      "inputs": [],
      "name": "verifyUser",
      "outputs": [],
      "stateMutability": "nonpayable",
      "type": "function"
    },
    {
      "inputs": [
        {
          "internalType": "uint256",
          "name": "_patientId",
          "type": "uint256"
        }
      ],
      "name": "uploadData",
      "outputs": [],
      "stateMutability": "nonpayable",
      "type": "function"
    },
    {
      "inputs": [
        {
          "internalType": "uint256",
          "name": "_patientId",
          "type": "uint256"
        }
      ],
      "name": "checkDataUploadStatus",
      "outputs": [
        {
          "internalType": "string",
          "name": "",
          "type": "string"
        }
      ],
      "stateMutability": "view",
      "type": "function",
      "constant": true
    }
  ],
  "bytecode": "0x608060405234801561001057600080fd5b50604051610a5b380380610a5b8339818101604052810190610032919061011c565b336000806101000a81548173ffffffffffffffffffffffffffffffffffffffff021916908373ffffffffffffffffffffffffffffffffffffffff16021790555080600160006101000a81548173ffffffffffffffffffffffffffffffffffffffff021916908373ffffffffffffffffffffffffffffffffffffffff16021790555050610149565b600080fd5b600073ffffffffffffffffffffffffffffffffffffffff82169050919050565b60006100e9826100be565b9050919050565b6100f9816100de565b811461010457600080fd5b50565b600081519050610116816100f0565b92915050565b600060208284031215610132576101316100b9565b5b600061014084828501610107565b91505092915050565b610903806101586000396000f3fe608060405234801561001057600080fd5b50600436106100885760003560e01c806395c821141161005b57806395c8211414610101578063aa2fedde1461011f578063d78f51b91461013d578063fcf859421461015b57610088565b806354e6e0cb1461008d57806360b45fe0146100bd5780636def5307146100d957806395407482146100f7575b600080fd5b6100a760048036038101906100a29190610514565b61018b565b6040516100b491906105d1565b60405180910390f35b6100d760048036038101906100d29190610514565b61022e565b005b6100e161039f565b6040516100ee919061060e565b60405180910390f35b6100ff6103b2565b005b61010961045c565b604051610116919061060e565b60405180910390f35b61012761046f565b604051610134919061066a565b60405180910390f35b610145610495565b604051610152919061066a565b60405180910390f35b61017560048036038101906101709190610514565b6104b9565b604051610182919061060e565b60405180910390f35b60606002600083815260200190815260200160002060009054906101000a900460ff16156101f0576040518060400160405280601d81526020017f446174612069732075706c6f61646564207375636365737366756c6c790000008152509050610229565b6040518060400160405280601581526020017f4661696c656420746f2075706c6f61642064617461000000000000000000000081525090505b919050565b600160009054906101000a900473ffffffffffffffffffffffffffffffffffffffff1673ffffffffffffffffffffffffffffffffffffffff163373ffffffffffffffffffffffffffffffffffffffff16146102be576040517f08c379a00000000000000000000000000000000000000000000000000000000081526004016102b5906106f7565b60405180910390fd5b600160149054906101000a900460ff1661030d576040517f08c379a000000000000000000000000000000000000000000000000000000000815260040161030490610789565b60405180910390fd5b806002600082815260200190815260200160002060009054906101000a900460ff161561036f576040517f08c379a00000000000000000000000000000000000000000000000000000000081526004016103669061081b565b60405180910390fd5b60016002600084815260200190815260200160002060006101000a81548160ff0219169083151502179055505050565b600160159054906101000a900460ff1681565b60008054906101000a900473ffffffffffffffffffffffffffffffffffffffff1673ffffffffffffffffffffffffffffffffffffffff163373ffffffffffffffffffffffffffffffffffffffff1614610440576040517f08c379a0000000000000000000000000000000000000000000000000000000008152600401610437906108ad565b60405180910390fd5b60018060146101000a81548160ff021916908315150217905550565b600160149054906101000a900460ff1681565b600160009054906101000a900473ffffffffffffffffffffffffffffffffffffffff1681565b60008054906101000a900473ffffffffffffffffffffffffffffffffffffffff1681565b60026020528060005260406000206000915054906101000a900460ff1681565b600080fd5b6000819050919050565b6104f1816104de565b81146104fc57600080fd5b50565b60008135905061050e816104e8565b92915050565b60006020828403121561052a576105296104d9565b5b6000610538848285016104ff565b91505092915050565b600081519050919050565b600082825260208201905092915050565b60005b8381101561057b578082015181840152602081019050610560565b60008484015250505050565b6000601f19601f8301169050919050565b60006105a382610541565b6105ad818561054c565b93506105bd81856020860161055d565b6105c681610587565b840191505092915050565b600060208201905081810360008301526105eb8184610598565b905092915050565b60008115159050919050565b610608816105f3565b82525050565b600060208201905061062360008301846105ff565b92915050565b600073ffffffffffffffffffffffffffffffffffffffff82169050919050565b600061065482610629565b9050919050565b61066481610649565b82525050565b600060208201905061067f600083018461065b565b92915050565b7f4f6e6c792074686520686f73706974616c2063616e2063616c6c20746869732060008201527f66756e6374696f6e000000000000000000000000000000000000000000000000602082015250565b60006106e160288361054c565b91506106ec82610685565b604082019050919050565b60006020820190508181036000830152610710816106d4565b9050919050565b7f55736572206973206e6f7420766572696669656420776974682074686520686f60008201527f73706974616c0000000000000000000000000000000000000000000000000000602082015250565b600061077360268361054c565b915061077e82610717565b604082019050919050565b600060208201905081810360008301526107a281610766565b9050919050565b7f446174612068617320616c7265616479206265656e2075706c6f61646564206660008201527f6f7220746869732070617469656e740000000000000000000000000000000000602082015250565b6000610805602f8361054c565b9150610810826107a9565b604082019050919050565b60006020820190508181036000830152610834816107f8565b9050919050565b7f4f6e6c792074686520696e737572616e636520636f6d70616e792063616e206360008201527f616c6c20746869732066756e6374696f6e000000000000000000000000000000602082015250565b600061089760318361054c565b91506108a28261083b565b604082019050919050565b600060208201905081810360008301526108c68161088a565b905091905056fea2646970667358221220c228b4b356479584480ba1a8736ae02e8cbb0ca2675839d7e6e0f9fe5d81431c64736f6c63430008110033",
  "immutableReferences": {},
  "source": "// SPDX-License-Identifier: MIT\npragma solidity >=0.5.0 <0.9.0;\n\ncontract HealthInsuranceContract {\n    address public insuranceCompany;\n    address public hospital;\n    bool public userVerificationStatus;\n    bool public dataUploaded;\n\n    mapping(uint256 => bool) public patientDataUploaded;\n\n    modifier onlyInsuranceCompany() {\n        require(msg.sender == insuranceCompany, \"Only the insurance company can call this function\");\n        _;\n    }\n\n    modifier onlyHospital() {\n        require(msg.sender == hospital, \"Only the hospital can call this function\");\n        _;\n    }\n\n    modifier userVerified() {\n        require(userVerificationStatus, \"User is not verified with the hospital\");\n        _;\n    }\n\n    modifier dataNotUploaded(uint256 _patientId) {\n        require(!patientDataUploaded[_patientId], \"Data has already been uploaded for this patient\");\n        _;\n    }\n\n    constructor(address _hospital) {\n        insuranceCompany = msg.sender;\n        hospital = _hospital;\n    }\n\n    function verifyUser() external onlyInsuranceCompany {\n        // Add logic to verify user with the hospital\n        // For example, you can use an oracle or an off-chain process for this\n        userVerificationStatus = true;\n    }\n\n    function uploadData(uint256 _patientId) external onlyHospital userVerified dataNotUploaded(_patientId) {\n        // Add logic to upload encrypted patient information to the blockchain\n        // For simplicity, I'm using a boolean variable to represent data upload success\n        patientDataUploaded[_patientId] = true;\n    }\n\n    function checkDataUploadStatus(uint256 _patientId) external view returns (string memory) {\n        if (patientDataUploaded[_patientId]) {\n            return \"Data is uploaded successfully\";\n        } else {\n            return \"Failed to upload data\";\n        }\n    }\n}\n\n\n",
  "sourcePath": "/Users/rj/Desktop/FYDP practices/truffleprac/contracts/HealthInsuranceContract.sol",
  "compiler": {
    "name": "solc",
    "version": "0.8.17+commit.8df45f5f.Emscripten.clang"
  },
  "schemaVersion": "3.4.16",
  "updatedAt": "2024-01-27T05:20:06.509Z",
  "networkType": "ethereum",
  "devdoc": {
    "kind": "dev",
    "methods": {},
    "version": 1
  },
  "userdoc": {
    "kind": "user",
    "methods": {},
    "version": 1
  }
}