{
  "contractName": "Insurance",
  "abi": [
    {
      "inputs": [],
      "stateMutability": "nonpayable",
      "type": "constructor"
    },
    {
      "inputs": [
        {
          "internalType": "address",
          "name": "",
          "type": "address"
        }
      ],
      "name": "claims",
      "outputs": [
        {
          "internalType": "uint256",
          "name": "",
          "type": "uint256"
        }
      ],
      "stateMutability": "view",
      "type": "function"
    },
    {
      "inputs": [
        {
          "internalType": "address",
          "name": "",
          "type": "address"
        }
      ],
      "name": "policies",
      "outputs": [
        {
          "internalType": "uint256",
          "name": "",
          "type": "uint256"
        }
      ],
      "stateMutability": "view",
      "type": "function"
    },
    {
      "inputs": [
        {
          "internalType": "uint256",
          "name": "",
          "type": "uint256"
        }
      ],
      "name": "policyholders",
      "outputs": [
        {
          "internalType": "address",
          "name": "",
          "type": "address"
        }
      ],
      "stateMutability": "view",
      "type": "function"
    },
    {
      "inputs": [],
      "name": "totalPremium",
      "outputs": [
        {
          "internalType": "uint256",
          "name": "",
          "type": "uint256"
        }
      ],
      "stateMutability": "view",
      "type": "function"
    },
    {
      "inputs": [
        {
          "internalType": "uint256",
          "name": "premium",
          "type": "uint256"
        }
      ],
      "name": "purchasePolicy",
      "outputs": [],
      "stateMutability": "payable",
      "type": "function"
    },
    {
      "inputs": [
        {
          "internalType": "uint256",
          "name": "amount",
          "type": "uint256"
        }
      ],
      "name": "policyClaim",
      "outputs": [],
      "stateMutability": "nonpayable",
      "type": "function"
    },
    {
      "inputs": [
        {
          "internalType": "address",
          "name": "policyholder",
          "type": "address"
        }
      ],
      "name": "approveClaim",
      "outputs": [],
      "stateMutability": "nonpayable",
      "type": "function"
    },
    {
      "inputs": [
        {
          "internalType": "address",
          "name": "policyholder",
          "type": "address"
        }
      ],
      "name": "getPolicy",
      "outputs": [
        {
          "internalType": "uint256",
          "name": "",
          "type": "uint256"
        }
      ],
      "stateMutability": "view",
      "type": "function"
    },
    {
      "inputs": [
        {
          "internalType": "address",
          "name": "policyholder",
          "type": "address"
        }
      ],
      "name": "getClaim",
      "outputs": [
        {
          "internalType": "uint256",
          "name": "",
          "type": "uint256"
        }
      ],
      "stateMutability": "view",
      "type": "function"
    },
    {
      "inputs": [],
      "name": "getTotalPremium",
      "outputs": [
        {
          "internalType": "uint256",
          "name": "",
          "type": "uint256"
        }
      ],
      "stateMutability": "view",
      "type": "function"
    },
    {
      "inputs": [
        {
          "internalType": "address payable",
          "name": "",
          "type": "address"
        }
      ],
      "name": "revokeAccess",
      "outputs": [],
      "stateMutability": "nonpayable",
      "type": "function"
    },
    {
      "inputs": [],
      "name": "destroy",
      "outputs": [],
      "stateMutability": "nonpayable",
      "type": "function"
    }
  ],
  "bytecode": "0x608060405234801561001057600080fd5b5033600360006101000a81548173ffffffffffffffffffffffffffffffffffffffff021916908373ffffffffffffffffffffffffffffffffffffffff16021790555061118b806100616000396000f3fe6080604052600436106100a75760003560e01c806385e685311161006457806385e68531146101d0578063c1260c9a146101f9578063c6788bdd14610215578063dbb773d914610252578063ed130a211461027b578063fbe39988146102b8576100a7565b806320e98698146100ac5780633791dc6a146100e95780634cd3723a146101265780634d21af961461016357806373f167511461018e57806383197ef0146101b9575b600080fd5b3480156100b857600080fd5b506100d360048036038101906100ce9190610abc565b6102e1565b6040516100e09190610b02565b60405180910390f35b3480156100f557600080fd5b50610110600480360381019061010b9190610abc565b6102f9565b60405161011d9190610b02565b60405180910390f35b34801561013257600080fd5b5061014d60048036038101906101489190610abc565b610342565b60405161015a9190610b02565b60405180910390f35b34801561016f57600080fd5b5061017861038b565b6040516101859190610b02565b60405180910390f35b34801561019a57600080fd5b506101a3610391565b6040516101b09190610b02565b60405180910390f35b3480156101c557600080fd5b506101ce61039b565b005b3480156101dc57600080fd5b506101f760048036038101906101f29190610b5b565b610466565b005b610213600480360381019061020e9190610bb4565b61053a565b005b34801561022157600080fd5b5061023c60048036038101906102379190610abc565b610682565b6040516102499190610b02565b60405180910390f35b34801561025e57600080fd5b5061027960048036038101906102749190610abc565b61069a565b005b34801561028757600080fd5b506102a2600480360381019061029d9190610bb4565b61087a565b6040516102af9190610bf0565b60405180910390f35b3480156102c457600080fd5b506102df60048036038101906102da9190610bb4565b6108b9565b005b60016020528060005260406000206000915090505481565b6000600160008373ffffffffffffffffffffffffffffffffffffffff1673ffffffffffffffffffffffffffffffffffffffff168152602001908152602001600020549050919050565b6000600260008373ffffffffffffffffffffffffffffffffffffffff1673ffffffffffffffffffffffffffffffffffffffff168152602001908152602001600020549050919050565b60045481565b6000600454905090565b600360009054906101000a900473ffffffffffffffffffffffffffffffffffffffff1673ffffffffffffffffffffffffffffffffffffffff163373ffffffffffffffffffffffffffffffffffffffff161461042b576040517f08c379a000000000000000000000000000000000000000000000000000000000815260040161042290610c8e565b60405180910390fd5b600360009054906101000a900473ffffffffffffffffffffffffffffffffffffffff1673ffffffffffffffffffffffffffffffffffffffff16ff5b600360009054906101000a900473ffffffffffffffffffffffffffffffffffffffff1673ffffffffffffffffffffffffffffffffffffffff163373ffffffffffffffffffffffffffffffffffffffff16146104f6576040517f08c379a00000000000000000000000000000000000000000000000000000000081526004016104ed90610cfa565b60405180910390fd5b33600360006101000a81548173ffffffffffffffffffffffffffffffffffffffff021916908373ffffffffffffffffffffffffffffffffffffffff16021790555050565b80341461057c576040517f08c379a000000000000000000000000000000000000000000000000000000000815260040161057390610d66565b60405180910390fd5b600081116105bf576040517f08c379a00000000000000000000000000000000000000000000000000000000081526004016105b690610df8565b60405180910390fd5b6000339080600181540180825580915050600190039060005260206000200160009091909190916101000a81548173ffffffffffffffffffffffffffffffffffffffff021916908373ffffffffffffffffffffffffffffffffffffffff16021790555080600160003373ffffffffffffffffffffffffffffffffffffffff1673ffffffffffffffffffffffffffffffffffffffff1681526020019081526020016000208190555080600460008282546106789190610e47565b9250508190555050565b60026020528060005260406000206000915090505481565b600360009054906101000a900473ffffffffffffffffffffffffffffffffffffffff1673ffffffffffffffffffffffffffffffffffffffff163373ffffffffffffffffffffffffffffffffffffffff161461072a576040517f08c379a000000000000000000000000000000000000000000000000000000000815260040161072190610eed565b60405180910390fd5b6000600260008373ffffffffffffffffffffffffffffffffffffffff1673ffffffffffffffffffffffffffffffffffffffff16815260200190815260200160002054116107ac576040517f08c379a00000000000000000000000000000000000000000000000000000000081526004016107a390610f7f565b60405180910390fd5b8073ffffffffffffffffffffffffffffffffffffffff166108fc600260008473ffffffffffffffffffffffffffffffffffffffff1673ffffffffffffffffffffffffffffffffffffffff168152602001908152602001600020549081150290604051600060405180830381858888f19350505050158015610831573d6000803e3d6000fd5b506000600260008373ffffffffffffffffffffffffffffffffffffffff1673ffffffffffffffffffffffffffffffffffffffff1681526020019081526020016000208190555050565b6000818154811061088a57600080fd5b906000526020600020016000915054906101000a900473ffffffffffffffffffffffffffffffffffffffff1681565b6000600160003373ffffffffffffffffffffffffffffffffffffffff1673ffffffffffffffffffffffffffffffffffffffff168152602001908152602001600020541161093b576040517f08c379a000000000000000000000000000000000000000000000000000000000815260040161093290611011565b60405180910390fd5b6000811161097e576040517f08c379a0000000000000000000000000000000000000000000000000000000008152600401610975906110a3565b60405180910390fd5b600160003373ffffffffffffffffffffffffffffffffffffffff1673ffffffffffffffffffffffffffffffffffffffff16815260200190815260200160002054811115610a00576040517f08c379a00000000000000000000000000000000000000000000000000000000081526004016109f790611135565b60405180910390fd5b80600260003373ffffffffffffffffffffffffffffffffffffffff1673ffffffffffffffffffffffffffffffffffffffff1681526020019081526020016000206000828254610a4f9190610e47565b9250508190555050565b600080fd5b600073ffffffffffffffffffffffffffffffffffffffff82169050919050565b6000610a8982610a5e565b9050919050565b610a9981610a7e565b8114610aa457600080fd5b50565b600081359050610ab681610a90565b92915050565b600060208284031215610ad257610ad1610a59565b5b6000610ae084828501610aa7565b91505092915050565b6000819050919050565b610afc81610ae9565b82525050565b6000602082019050610b176000830184610af3565b92915050565b6000610b2882610a5e565b9050919050565b610b3881610b1d565b8114610b4357600080fd5b50565b600081359050610b5581610b2f565b92915050565b600060208284031215610b7157610b70610a59565b5b6000610b7f84828501610b46565b91505092915050565b610b9181610ae9565b8114610b9c57600080fd5b50565b600081359050610bae81610b88565b92915050565b600060208284031215610bca57610bc9610a59565b5b6000610bd884828501610b9f565b91505092915050565b610bea81610a7e565b82525050565b6000602082019050610c056000830184610be1565b92915050565b600082825260208201905092915050565b7f4f6e6c7920746865206f776e65722063616e2064657374726f7920746865206360008201527f6f6e747261637400000000000000000000000000000000000000000000000000602082015250565b6000610c78602783610c0b565b9150610c8382610c1c565b604082019050919050565b60006020820190508181036000830152610ca781610c6b565b9050919050565b7f4f6e6c79206f776e65722063616e207265766f6b652041636365737300000000600082015250565b6000610ce4601c83610c0b565b9150610cef82610cae565b602082019050919050565b60006020820190508181036000830152610d1381610cd7565b9050919050565b7f496e636f7272656374207072656d69756d20616d6f756e742e00000000000000600082015250565b6000610d50601983610c0b565b9150610d5b82610d1a565b602082019050919050565b60006020820190508181036000830152610d7f81610d43565b9050919050565b7f5072656d69756d20616d6f756e74206d7573742062652067726561746572207460008201527f68616e20302e0000000000000000000000000000000000000000000000000000602082015250565b6000610de2602683610c0b565b9150610ded82610d86565b604082019050919050565b60006020820190508181036000830152610e1181610dd5565b9050919050565b7f4e487b7100000000000000000000000000000000000000000000000000000000600052601160045260246000fd5b6000610e5282610ae9565b9150610e5d83610ae9565b9250828201905080821115610e7557610e74610e18565b5b92915050565b7f4f6e6c7920746865206f776e65722063616e20617070726f766520636c61696d60008201527f2e00000000000000000000000000000000000000000000000000000000000000602082015250565b6000610ed7602183610c0b565b9150610ee282610e7b565b604082019050919050565b60006020820190508181036000830152610f0681610eca565b9050919050565b7f506f6c696379686f6c6465727320686173206e6f206f75747374616e64696e6760008201527f20636c61696d2e20000000000000000000000000000000000000000000000000602082015250565b6000610f69602883610c0b565b9150610f7482610f0d565b604082019050919050565b60006020820190508181036000830152610f9881610f5c565b9050919050565b7f4d757374204861766520612076616c696420706f6c69637920746f2066696c6560008201527f206120636c61696d2e0000000000000000000000000000000000000000000000602082015250565b6000610ffb602983610c0b565b915061100682610f9f565b604082019050919050565b6000602082019050818103600083015261102a81610fee565b9050919050565b7f436c61696d20616d6f756e74206d75737420626520677265617465722074686160008201527f6e20302e00000000000000000000000000000000000000000000000000000000602082015250565b600061108d602483610c0b565b915061109882611031565b604082019050919050565b600060208201905081810360008301526110bc81611080565b9050919050565b7f436c61696d20616d6f756e742063616e6e6f75742065786365656420706f6c6960008201527f6379206c696d69742e0000000000000000000000000000000000000000000000602082015250565b600061111f602983610c0b565b915061112a826110c3565b604082019050919050565b6000602082019050818103600083015261114e81611112565b905091905056fea264697066735822122067ae53630357ba5f6b14630d60262271eec6ade05ef193bffc611e89a31a6eaf64736f6c63430008110033",
  "immutableReferences": {},
  "source": "//SPDX-License-Identifier:MIT \npragma solidity ^0.8.0;\n\ncontract Insurance{\n    address [] public policyholders; //who will hold the policy in the contract will habe the address here\n    mapping(address => uint256) public policies; //What policy they have\n    mapping(address => uint256) public claims;//Tract of the claims\n    address payable owner;//Who deploy the contract\n    uint256 public totalPremium;\n    constructor() public{ \n        owner = payable(msg.sender);\n    }\n\nfunction purchasePolicy(uint256 premium) public payable{\n    require(msg.value == premium, \"Incorrect premium amount.\");\n    require(premium>0,\"Premium amount must be greater than 0.\");\n    policyholders.push(msg.sender);\n    policies[msg.sender] = premium;\n    totalPremium += premium;\n}\n\nfunction policyClaim(uint256 amount) public{\n    require(policies[msg.sender]>0,\"Must Have a valid policy to file a claim.\");\n    require(amount >0, \"Claim amount must be greater than 0.\");\n    require(amount <= policies[msg.sender],\"Claim amount cannout exceed policy limit.\");\n    claims[msg.sender] += amount;\n\n}\n\nfunction approveClaim(address policyholder) public {\n    require(msg.sender == owner, \"Only the owner can approve claim.\");\n    require(claims[policyholder]>0,\"Policyholders has no outstanding claim. \"); \n    payable(policyholder).transfer(claims[policyholder]);\n    claims[policyholder] = 0;\n\n\n}\nfunction getPolicy(address policyholder )public view returns(uint256){\n    return policies[policyholder];\n}\n\nfunction getClaim(address policyholder) public view returns (uint256){\n    return claims[policyholder];\n}\nfunction getTotalPremium() public view returns(uint256){\n    return totalPremium;\n}\n\n\nfunction revokeAccess(address payable)public {\n    require(msg.sender == owner,\"Only owner can revoke Access\" );\n    owner = payable(msg.sender);\n    \n}\nfunction destroy() public{\n    require(msg.sender == owner,\"Only the owner can destroy the contract\");\n    selfdestruct(owner);\n}\n}",
  "sourcePath": "/Users/rj/Desktop/FYDP practices/truffleprac/contracts/Insurance.sol",
  "compiler": {
    "name": "solc",
    "version": "0.8.17+commit.8df45f5f.Emscripten.clang"
  },
  "schemaVersion": "3.4.16",
  "updatedAt": "2024-01-26T16:25:15.512Z",
  "devdoc": {
    "kind": "dev",
    "methods": {},
    "version": 1
  },
  "userdoc": {
    "kind": "user",
    "methods": {},
    "version": 1
  }
}