{
  "contractName": "Insurance",
  "abi": [
    {
      "inputs": [],
      "stateMutability": "nonpayable",
      "type": "constructor"
    },
    {
      "anonymous": false,
      "inputs": [
        {
          "indexed": false,
          "internalType": "uint256",
          "name": "timestamp",
          "type": "uint256"
        }
      ],
      "name": "ApproveClaimEvent",
      "type": "event"
    },
    {
      "anonymous": false,
      "inputs": [
        {
          "indexed": false,
          "internalType": "uint256",
          "name": "timestamp",
          "type": "uint256"
        }
      ],
      "name": "ContractDestructionEvent",
      "type": "event"
    },
    {
      "anonymous": false,
      "inputs": [
        {
          "indexed": false,
          "internalType": "uint256",
          "name": "timestamp",
          "type": "uint256"
        }
      ],
      "name": "PolicyClaimEvent",
      "type": "event"
    },
    {
      "anonymous": false,
      "inputs": [
        {
          "indexed": false,
          "internalType": "uint256",
          "name": "timestamp",
          "type": "uint256"
        }
      ],
      "name": "PurchasePolicyEvent",
      "type": "event"
    },
    {
      "inputs": [],
      "name": "approveClaimTime",
      "outputs": [
        {
          "internalType": "uint256",
          "name": "",
          "type": "uint256"
        }
      ],
      "stateMutability": "view",
      "type": "function",
      "constant": true
    },
    {
      "inputs": [
        {
          "internalType": "address",
          "name": "",
          "type": "address"
        }
      ],
      "name": "claims",
      "outputs": [
        {
          "internalType": "uint256",
          "name": "",
          "type": "uint256"
        }
      ],
      "stateMutability": "view",
      "type": "function",
      "constant": true
    },
    {
      "inputs": [],
      "name": "contractCreationTime",
      "outputs": [
        {
          "internalType": "uint256",
          "name": "",
          "type": "uint256"
        }
      ],
      "stateMutability": "view",
      "type": "function",
      "constant": true
    },
    {
      "inputs": [],
      "name": "contractDestructionTime",
      "outputs": [
        {
          "internalType": "uint256",
          "name": "",
          "type": "uint256"
        }
      ],
      "stateMutability": "view",
      "type": "function",
      "constant": true
    },
    {
      "inputs": [],
      "name": "owner",
      "outputs": [
        {
          "internalType": "address payable",
          "name": "",
          "type": "address"
        }
      ],
      "stateMutability": "view",
      "type": "function",
      "constant": true
    },
    {
      "inputs": [
        {
          "internalType": "address",
          "name": "",
          "type": "address"
        }
      ],
      "name": "policies",
      "outputs": [
        {
          "internalType": "uint256",
          "name": "",
          "type": "uint256"
        }
      ],
      "stateMutability": "view",
      "type": "function",
      "constant": true
    },
    {
      "inputs": [],
      "name": "policyClaimTime",
      "outputs": [
        {
          "internalType": "uint256",
          "name": "",
          "type": "uint256"
        }
      ],
      "stateMutability": "view",
      "type": "function",
      "constant": true
    },
    {
      "inputs": [
        {
          "internalType": "uint256",
          "name": "",
          "type": "uint256"
        }
      ],
      "name": "policyholders",
      "outputs": [
        {
          "internalType": "address",
          "name": "",
          "type": "address"
        }
      ],
      "stateMutability": "view",
      "type": "function",
      "constant": true
    },
    {
      "inputs": [],
      "name": "purchasePolicyTime",
      "outputs": [
        {
          "internalType": "uint256",
          "name": "",
          "type": "uint256"
        }
      ],
      "stateMutability": "view",
      "type": "function",
      "constant": true
    },
    {
      "inputs": [],
      "name": "totalPremium",
      "outputs": [
        {
          "internalType": "uint256",
          "name": "",
          "type": "uint256"
        }
      ],
      "stateMutability": "view",
      "type": "function",
      "constant": true
    },
    {
      "inputs": [
        {
          "internalType": "uint256",
          "name": "premium",
          "type": "uint256"
        }
      ],
      "name": "purchasePolicy",
      "outputs": [],
      "stateMutability": "payable",
      "type": "function",
      "payable": true
    },
    {
      "inputs": [
        {
          "internalType": "uint256",
          "name": "amount",
          "type": "uint256"
        }
      ],
      "name": "policyClaim",
      "outputs": [],
      "stateMutability": "nonpayable",
      "type": "function"
    },
    {
      "inputs": [
        {
          "internalType": "address",
          "name": "policyholder",
          "type": "address"
        }
      ],
      "name": "approveClaim",
      "outputs": [],
      "stateMutability": "nonpayable",
      "type": "function"
    },
    {
      "inputs": [
        {
          "internalType": "address",
          "name": "policyholder",
          "type": "address"
        }
      ],
      "name": "getPolicy",
      "outputs": [
        {
          "internalType": "uint256",
          "name": "",
          "type": "uint256"
        }
      ],
      "stateMutability": "view",
      "type": "function",
      "constant": true
    },
    {
      "inputs": [
        {
          "internalType": "address",
          "name": "policyholder",
          "type": "address"
        }
      ],
      "name": "getClaim",
      "outputs": [
        {
          "internalType": "uint256",
          "name": "",
          "type": "uint256"
        }
      ],
      "stateMutability": "view",
      "type": "function",
      "constant": true
    },
    {
      "inputs": [],
      "name": "getTotalPremium",
      "outputs": [
        {
          "internalType": "uint256",
          "name": "",
          "type": "uint256"
        }
      ],
      "stateMutability": "view",
      "type": "function",
      "constant": true
    },
    {
      "inputs": [
        {
          "internalType": "address payable",
          "name": "newOwner",
          "type": "address"
        }
      ],
      "name": "revokeAccess",
      "outputs": [],
      "stateMutability": "nonpayable",
      "type": "function"
    },
    {
      "inputs": [],
      "name": "destroy",
      "outputs": [],
      "stateMutability": "nonpayable",
      "type": "function"
    }
  ],
  "bytecode": "0x608060405234801561001057600080fd5b5033600360006101000a81548173ffffffffffffffffffffffffffffffffffffffff021916908373ffffffffffffffffffffffffffffffffffffffff16021790555042600581905550611481806100686000396000f3fe6080604052600436106101095760003560e01c806385e6853111610095578063c6788bdd11610064578063c6788bdd1461034e578063cea3e5301461038b578063dbb773d9146103b6578063ed130a21146103df578063fbe399881461041c57610109565b806385e68531146102b35780638d4cddb1146102dc5780638da5cb5b14610307578063c1260c9a1461033257610109565b80634d21af96116100dc5780634d21af96146101f057806373f167511461021b578063757a0525146102465780637639714c1461027157806383197ef01461029c57610109565b806305ad797c1461010e57806320e98698146101395780633791dc6a146101765780634cd3723a146101b3575b600080fd5b34801561011a57600080fd5b50610123610445565b6040516101309190610daa565b60405180910390f35b34801561014557600080fd5b50610160600480360381019061015b9190610e28565b61044b565b60405161016d9190610daa565b60405180910390f35b34801561018257600080fd5b5061019d60048036038101906101989190610e28565b610463565b6040516101aa9190610daa565b60405180910390f35b3480156101bf57600080fd5b506101da60048036038101906101d59190610e28565b6104ac565b6040516101e79190610daa565b60405180910390f35b3480156101fc57600080fd5b506102056104f5565b6040516102129190610daa565b60405180910390f35b34801561022757600080fd5b506102306104fb565b60405161023d9190610daa565b60405180910390f35b34801561025257600080fd5b5061025b610505565b6040516102689190610daa565b60405180910390f35b34801561027d57600080fd5b5061028661050b565b6040516102939190610daa565b60405180910390f35b3480156102a857600080fd5b506102b1610511565b005b3480156102bf57600080fd5b506102da60048036038101906102d59190610e93565b6106ac565b005b3480156102e857600080fd5b506102f1610780565b6040516102fe9190610daa565b60405180910390f35b34801561031357600080fd5b5061031c610786565b6040516103299190610ecf565b60405180910390f35b61034c60048036038101906103479190610f16565b6107ac565b005b34801561035a57600080fd5b5061037560048036038101906103709190610e28565b610934565b6040516103829190610daa565b60405180910390f35b34801561039757600080fd5b506103a061094c565b6040516103ad9190610daa565b60405180910390f35b3480156103c257600080fd5b506103dd60048036038101906103d89190610e28565b610952565b005b3480156103eb57600080fd5b5061040660048036038101906104019190610f16565b610b72565b6040516104139190610f52565b60405180910390f35b34801561042857600080fd5b50610443600480360381019061043e9190610f16565b610bb1565b005b60095481565b60016020528060005260406000206000915090505481565b6000600160008373ffffffffffffffffffffffffffffffffffffffff1673ffffffffffffffffffffffffffffffffffffffff168152602001908152602001600020549050919050565b6000600260008373ffffffffffffffffffffffffffffffffffffffff1673ffffffffffffffffffffffffffffffffffffffff168152602001908152602001600020549050919050565b60045481565b6000600454905090565b60065481565b60075481565b600360009054906101000a900473ffffffffffffffffffffffffffffffffffffffff1673ffffffffffffffffffffffffffffffffffffffff163373ffffffffffffffffffffffffffffffffffffffff16146105a1576040517f08c379a000000000000000000000000000000000000000000000000000000000815260040161059890610ff0565b60405180910390fd5b426009819055507f6aaaa4e25c5214f81d37af80f0b5f29ec7a6a419c2d04512dff7337dedc8d5d76009546040516105d99190610daa565b60405180910390a1600360009054906101000a900473ffffffffffffffffffffffffffffffffffffffff1673ffffffffffffffffffffffffffffffffffffffff163373ffffffffffffffffffffffffffffffffffffffff1614610671576040517f08c379a000000000000000000000000000000000000000000000000000000000815260040161066890611082565b60405180910390fd5b600360009054906101000a900473ffffffffffffffffffffffffffffffffffffffff1673ffffffffffffffffffffffffffffffffffffffff16ff5b600360009054906101000a900473ffffffffffffffffffffffffffffffffffffffff1673ffffffffffffffffffffffffffffffffffffffff163373ffffffffffffffffffffffffffffffffffffffff161461073c576040517f08c379a000000000000000000000000000000000000000000000000000000000815260040161073390610ff0565b60405180910390fd5b80600360006101000a81548173ffffffffffffffffffffffffffffffffffffffff021916908373ffffffffffffffffffffffffffffffffffffffff16021790555050565b60085481565b600360009054906101000a900473ffffffffffffffffffffffffffffffffffffffff1681565b426006819055507f5472ca1c48de5aa169c5828c735baaa523a8075503b58a178908fc5dce66009a6006546040516107e49190610daa565b60405180910390a180341461082e576040517f08c379a0000000000000000000000000000000000000000000000000000000008152600401610825906110ee565b60405180910390fd5b60008111610871576040517f08c379a000000000000000000000000000000000000000000000000000000000815260040161086890611180565b60405180910390fd5b6000339080600181540180825580915050600190039060005260206000200160009091909190916101000a81548173ffffffffffffffffffffffffffffffffffffffff021916908373ffffffffffffffffffffffffffffffffffffffff16021790555080600160003373ffffffffffffffffffffffffffffffffffffffff1673ffffffffffffffffffffffffffffffffffffffff16815260200190815260200160002081905550806004600082825461092a91906111cf565b9250508190555050565b60026020528060005260406000206000915090505481565b60055481565b600360009054906101000a900473ffffffffffffffffffffffffffffffffffffffff1673ffffffffffffffffffffffffffffffffffffffff163373ffffffffffffffffffffffffffffffffffffffff16146109e2576040517f08c379a00000000000000000000000000000000000000000000000000000000081526004016109d990610ff0565b60405180910390fd5b426008819055507fa9d2fc14a581b28725ca476cfc1d20f97851540c5e1f1c0bacf8b124078061a5600854604051610a1a9190610daa565b60405180910390a16000600260008373ffffffffffffffffffffffffffffffffffffffff1673ffffffffffffffffffffffffffffffffffffffff1681526020019081526020016000205411610aa4576040517f08c379a0000000000000000000000000000000000000000000000000000000008152600401610a9b90611275565b60405180910390fd5b8073ffffffffffffffffffffffffffffffffffffffff166108fc600260008473ffffffffffffffffffffffffffffffffffffffff1673ffffffffffffffffffffffffffffffffffffffff168152602001908152602001600020549081150290604051600060405180830381858888f19350505050158015610b29573d6000803e3d6000fd5b506000600260008373ffffffffffffffffffffffffffffffffffffffff1673ffffffffffffffffffffffffffffffffffffffff1681526020019081526020016000208190555050565b60008181548110610b8257600080fd5b906000526020600020016000915054906101000a900473ffffffffffffffffffffffffffffffffffffffff1681565b426007819055507f97533898d42e305473860fb0c951f45e46aeb3aa9e026c2d89e58101cefe42de600754604051610be99190610daa565b60405180910390a16000600160003373ffffffffffffffffffffffffffffffffffffffff1673ffffffffffffffffffffffffffffffffffffffff1681526020019081526020016000205411610c73576040517f08c379a0000000000000000000000000000000000000000000000000000000008152600401610c6a90611307565b60405180910390fd5b60008111610cb6576040517f08c379a0000000000000000000000000000000000000000000000000000000008152600401610cad90611399565b60405180910390fd5b600160003373ffffffffffffffffffffffffffffffffffffffff1673ffffffffffffffffffffffffffffffffffffffff16815260200190815260200160002054811115610d38576040517f08c379a0000000000000000000000000000000000000000000000000000000008152600401610d2f9061142b565b60405180910390fd5b80600260003373ffffffffffffffffffffffffffffffffffffffff1673ffffffffffffffffffffffffffffffffffffffff1681526020019081526020016000206000828254610d8791906111cf565b9250508190555050565b6000819050919050565b610da481610d91565b82525050565b6000602082019050610dbf6000830184610d9b565b92915050565b600080fd5b600073ffffffffffffffffffffffffffffffffffffffff82169050919050565b6000610df582610dca565b9050919050565b610e0581610dea565b8114610e1057600080fd5b50565b600081359050610e2281610dfc565b92915050565b600060208284031215610e3e57610e3d610dc5565b5b6000610e4c84828501610e13565b91505092915050565b6000610e6082610dca565b9050919050565b610e7081610e55565b8114610e7b57600080fd5b50565b600081359050610e8d81610e67565b92915050565b600060208284031215610ea957610ea8610dc5565b5b6000610eb784828501610e7e565b91505092915050565b610ec981610e55565b82525050565b6000602082019050610ee46000830184610ec0565b92915050565b610ef381610d91565b8114610efe57600080fd5b50565b600081359050610f1081610eea565b92915050565b600060208284031215610f2c57610f2b610dc5565b5b6000610f3a84828501610f01565b91505092915050565b610f4c81610dea565b82525050565b6000602082019050610f676000830184610f43565b92915050565b600082825260208201905092915050565b7f4f6e6c7920746865206f776e65722063616e2063616c6c20746869732066756e60008201527f6374696f6e000000000000000000000000000000000000000000000000000000602082015250565b6000610fda602583610f6d565b9150610fe582610f7e565b604082019050919050565b6000602082019050818103600083015261100981610fcd565b9050919050565b7f4f6e6c7920746865206f776e65722063616e2064657374726f7920746865206360008201527f6f6e747261637400000000000000000000000000000000000000000000000000602082015250565b600061106c602783610f6d565b915061107782611010565b604082019050919050565b6000602082019050818103600083015261109b8161105f565b9050919050565b7f496e636f7272656374207072656d69756d20616d6f756e742e00000000000000600082015250565b60006110d8601983610f6d565b91506110e3826110a2565b602082019050919050565b60006020820190508181036000830152611107816110cb565b9050919050565b7f5072656d69756d20616d6f756e74206d7573742062652067726561746572207460008201527f68616e20302e0000000000000000000000000000000000000000000000000000602082015250565b600061116a602683610f6d565b91506111758261110e565b604082019050919050565b600060208201905081810360008301526111998161115d565b9050919050565b7f4e487b7100000000000000000000000000000000000000000000000000000000600052601160045260246000fd5b60006111da82610d91565b91506111e583610d91565b92508282019050808211156111fd576111fc6111a0565b5b92915050565b7f506f6c696379686f6c64657220686173206e6f206f75747374616e64696e672060008201527f636c61696d2e0000000000000000000000000000000000000000000000000000602082015250565b600061125f602683610f6d565b915061126a82611203565b604082019050919050565b6000602082019050818103600083015261128e81611252565b9050919050565b7f4d757374206861766520612076616c696420706f6c69637920746f2066696c6560008201527f206120636c61696d2e0000000000000000000000000000000000000000000000602082015250565b60006112f1602983610f6d565b91506112fc82611295565b604082019050919050565b60006020820190508181036000830152611320816112e4565b9050919050565b7f436c61696d20616d6f756e74206d75737420626520677265617465722074686160008201527f6e20302e00000000000000000000000000000000000000000000000000000000602082015250565b6000611383602483610f6d565b915061138e82611327565b604082019050919050565b600060208201905081810360008301526113b281611376565b9050919050565b7f436c61696d20616d6f756e742063616e6e6f742065786365656420706f6c696360008201527f79206c696d69742e000000000000000000000000000000000000000000000000602082015250565b6000611415602883610f6d565b9150611420826113b9565b604082019050919050565b6000602082019050818103600083015261144481611408565b905091905056fea2646970667358221220c9fe615df0ad9339a46b20412063aeda6f8e68c5bcf662e179bbcb61cacd40c964736f6c63430008110033",
  "immutableReferences": {},
  "source": "// SPDX-License-Identifier: MIT\npragma solidity >=0.5.0 <0.9.0;\n\ncontract Insurance {\n    address[] public policyholders;\n    mapping(address => uint256) public policies;\n    mapping(address => uint256) public claims;\n    address payable public owner;\n    uint256 public totalPremium;\n    uint256 public contractCreationTime;\n    uint256 public purchasePolicyTime;\n    uint256 public policyClaimTime;\n    uint256 public approveClaimTime;\n    uint256 public contractDestructionTime;\n\n    event PurchasePolicyEvent(uint256 timestamp);\n    event PolicyClaimEvent(uint256 timestamp);\n    event ApproveClaimEvent(uint256 timestamp);\n    event ContractDestructionEvent(uint256 timestamp);\n\n    modifier onlyOwner() {\n        require(msg.sender == owner, \"Only the owner can call this function\");\n        _;\n    }\n\n    constructor() {\n        owner = payable(msg.sender);\n        contractCreationTime = block.timestamp;\n    }\n\n    function purchasePolicy(uint256 premium) public payable {\n        purchasePolicyTime = block.timestamp;\n        emit PurchasePolicyEvent(purchasePolicyTime);\n\n        require(msg.value == premium, \"Incorrect premium amount.\");\n        require(premium > 0, \"Premium amount must be greater than 0.\");\n        policyholders.push(msg.sender);\n        policies[msg.sender] = premium;\n        totalPremium += premium;\n    }\n\n    function policyClaim(uint256 amount) public {\n        policyClaimTime = block.timestamp;\n        emit PolicyClaimEvent(policyClaimTime);\n\n        require(policies[msg.sender] > 0, \"Must have a valid policy to file a claim.\");\n        require(amount > 0, \"Claim amount must be greater than 0.\");\n        require(amount <= policies[msg.sender], \"Claim amount cannot exceed policy limit.\");\n        claims[msg.sender] += amount;\n    }\n\n    function approveClaim(address policyholder) public onlyOwner {\n        approveClaimTime = block.timestamp;\n        emit ApproveClaimEvent(approveClaimTime);\n\n        require(claims[policyholder] > 0, \"Policyholder has no outstanding claim.\");\n        payable(policyholder).transfer(claims[policyholder]);\n        claims[policyholder] = 0;\n    }\n\n    function getPolicy(address policyholder) public view returns (uint256) {\n        return policies[policyholder];\n    }\n\n    function getClaim(address policyholder) public view returns (uint256) {\n        return claims[policyholder];\n    }\n\n    function getTotalPremium() public view returns (uint256) {\n        return totalPremium;\n    }\n\n    function revokeAccess(address payable newOwner) public onlyOwner {\n        owner = newOwner;\n    }\n\n    function destroy() public onlyOwner {\n        contractDestructionTime = block.timestamp;\n        emit ContractDestructionEvent(contractDestructionTime);\n\n        require(msg.sender == owner, \"Only the owner can destroy the contract\");\n        selfdestruct(owner);\n    }\n}\n",
  "sourcePath": "/Users/rj/Desktop/FYDP practices/truffleprac/contracts/Insurance.sol",
  "compiler": {
    "name": "solc",
    "version": "0.8.17+commit.8df45f5f.Emscripten.clang"
  },
  "schemaVersion": "3.4.16",
  "updatedAt": "2024-01-27T05:20:05.843Z",
  "networkType": "ethereum",
  "devdoc": {
    "kind": "dev",
    "methods": {},
    "version": 1
  },
  "userdoc": {
    "kind": "user",
    "methods": {},
    "version": 1
  }
}