{
  "contractName": "UserIDGeneration",
  "abi": [
    {
      "anonymous": false,
      "inputs": [
        {
          "indexed": true,
          "internalType": "address",
          "name": "userAddress",
          "type": "address"
        },
        {
          "indexed": false,
          "internalType": "string",
          "name": "userInfo",
          "type": "string"
        },
        {
          "indexed": false,
          "internalType": "uint256",
          "name": "timestamp",
          "type": "uint256"
        }
      ],
      "name": "UserIDGenerated",
      "type": "event"
    },
    {
      "inputs": [
        {
          "internalType": "uint256",
          "name": "",
          "type": "uint256"
        }
      ],
      "name": "users",
      "outputs": [
        {
          "internalType": "address",
          "name": "userAddress",
          "type": "address"
        },
        {
          "internalType": "string",
          "name": "userInfo",
          "type": "string"
        },
        {
          "internalType": "uint256",
          "name": "timestamp",
          "type": "uint256"
        }
      ],
      "stateMutability": "view",
      "type": "function",
      "constant": true
    },
    {
      "inputs": [
        {
          "internalType": "string",
          "name": "_userInfo",
          "type": "string"
        }
      ],
      "name": "generateUserID",
      "outputs": [],
      "stateMutability": "nonpayable",
      "type": "function"
    },
    {
      "inputs": [],
      "name": "getUserCount",
      "outputs": [
        {
          "internalType": "uint256",
          "name": "",
          "type": "uint256"
        }
      ],
      "stateMutability": "view",
      "type": "function",
      "constant": true
    }
  ],
  "bytecode": "0x608060405234801561001057600080fd5b50610930806100206000396000f3fe608060405234801561001057600080fd5b50600436106100415760003560e01c8063365b98b214610046578063b5cb15f714610078578063bafb5ea114610096575b600080fd5b610060600480360381019061005b9190610308565b6100b2565b60405161006f93929190610415565b60405180910390f35b610080610194565b60405161008d9190610453565b60405180910390f35b6100b060048036038101906100ab91906105a3565b6101a0565b005b600081815481106100c257600080fd5b90600052602060002090600302016000915090508060000160009054906101000a900473ffffffffffffffffffffffffffffffffffffffff169080600101805461010b9061061b565b80601f01602080910402602001604051908101604052809291908181526020018280546101379061061b565b80156101845780601f1061015957610100808354040283529160200191610184565b820191906000526020600020905b81548152906001019060200180831161016757829003601f168201915b5050505050908060020154905083565b60008080549050905090565b600060405180606001604052803373ffffffffffffffffffffffffffffffffffffffff168152602001838152602001428152509050600081908060018154018082558091505060019003906000526020600020906003020160009091909190915060008201518160000160006101000a81548173ffffffffffffffffffffffffffffffffffffffff021916908373ffffffffffffffffffffffffffffffffffffffff160217905550602082015181600101908161025d91906107f8565b506040820151816002015550503373ffffffffffffffffffffffffffffffffffffffff167f512f200d965501ae62d7508d26872fd446c7f306c4acd135a4c0900544baf08783426040516102b29291906108ca565b60405180910390a25050565b6000604051905090565b600080fd5b600080fd5b6000819050919050565b6102e5816102d2565b81146102f057600080fd5b50565b600081359050610302816102dc565b92915050565b60006020828403121561031e5761031d6102c8565b5b600061032c848285016102f3565b91505092915050565b600073ffffffffffffffffffffffffffffffffffffffff82169050919050565b600061036082610335565b9050919050565b61037081610355565b82525050565b600081519050919050565b600082825260208201905092915050565b60005b838110156103b0578082015181840152602081019050610395565b60008484015250505050565b6000601f19601f8301169050919050565b60006103d882610376565b6103e28185610381565b93506103f2818560208601610392565b6103fb816103bc565b840191505092915050565b61040f816102d2565b82525050565b600060608201905061042a6000830186610367565b818103602083015261043c81856103cd565b905061044b6040830184610406565b949350505050565b60006020820190506104686000830184610406565b92915050565b600080fd5b600080fd5b7f4e487b7100000000000000000000000000000000000000000000000000000000600052604160045260246000fd5b6104b0826103bc565b810181811067ffffffffffffffff821117156104cf576104ce610478565b5b80604052505050565b60006104e26102be565b90506104ee82826104a7565b919050565b600067ffffffffffffffff82111561050e5761050d610478565b5b610517826103bc565b9050602081019050919050565b82818337600083830152505050565b6000610546610541846104f3565b6104d8565b90508281526020810184848401111561056257610561610473565b5b61056d848285610524565b509392505050565b600082601f83011261058a5761058961046e565b5b813561059a848260208601610533565b91505092915050565b6000602082840312156105b9576105b86102c8565b5b600082013567ffffffffffffffff8111156105d7576105d66102cd565b5b6105e384828501610575565b91505092915050565b7f4e487b7100000000000000000000000000000000000000000000000000000000600052602260045260246000fd5b6000600282049050600182168061063357607f821691505b602082108103610646576106456105ec565b5b50919050565b60008190508160005260206000209050919050565b60006020601f8301049050919050565b600082821b905092915050565b6000600883026106ae7fffffffffffffffffffffffffffffffffffffffffffffffffffffffffffffffff82610671565b6106b88683610671565b95508019841693508086168417925050509392505050565b6000819050919050565b60006106f56106f06106eb846102d2565b6106d0565b6102d2565b9050919050565b6000819050919050565b61070f836106da565b61072361071b826106fc565b84845461067e565b825550505050565b600090565b61073861072b565b610743818484610706565b505050565b5b818110156107675761075c600082610730565b600181019050610749565b5050565b601f8211156107ac5761077d8161064c565b61078684610661565b81016020851015610795578190505b6107a96107a185610661565b830182610748565b50505b505050565b600082821c905092915050565b60006107cf600019846008026107b1565b1980831691505092915050565b60006107e883836107be565b9150826002028217905092915050565b61080182610376565b67ffffffffffffffff81111561081a57610819610478565b5b610824825461061b565b61082f82828561076b565b600060209050601f8311600181146108625760008415610850578287015190505b61085a85826107dc565b8655506108c2565b601f1984166108708661064c565b60005b8281101561089857848901518255600182019150602085019450602081019050610873565b868310156108b557848901516108b1601f8916826107be565b8355505b6001600288020188555050505b505050505050565b600060408201905081810360008301526108e481856103cd565b90506108f36020830184610406565b939250505056fea2646970667358221220b38366b911e5665670229b4621869454190a611626a240d8c6da5d931a8e4ea864736f6c63430008110033",
  "immutableReferences": {},
  "source": "// SPDX-License-Identifier: MIT\npragma solidity >=0.5.0 <0.9.0;\n\ncontract UserIDGeneration {\n    struct User {\n        address userAddress;\n        string userInfo;\n        uint256 timestamp;\n    }\n\n    User[] public users;\n\n    event UserIDGenerated(address indexed userAddress, string userInfo, uint256 timestamp);\n\n    function generateUserID(string memory _userInfo) public {\n        User memory newUser = User({\n            userAddress: msg.sender,\n            userInfo: _userInfo,\n            timestamp: block.timestamp\n        });\n\n        users.push(newUser);\n\n        emit UserIDGenerated(msg.sender, _userInfo, block.timestamp);\n    }\n\n    function getUserCount() public view returns (uint256) {\n        return users.length;\n    }\n}\n",
  "sourcePath": "/Users/rj/Desktop/FYDP practices/truffleprac/contracts/UserIDGeneration.sol",
  "compiler": {
    "name": "solc",
    "version": "0.8.17+commit.8df45f5f.Emscripten.clang"
  },
  "schemaVersion": "3.4.16",
  "updatedAt": "2024-01-27T05:20:06.183Z",
  "networkType": "ethereum",
  "devdoc": {
    "kind": "dev",
    "methods": {},
    "version": 1
  },
  "userdoc": {
    "kind": "user",
    "methods": {},
    "version": 1
  }
}